:020000040800F2
:1000000000280020310E0008BD0D0008C50D0008B5
:10001000CD0D0008D50D0008DD0D00080000000022
:10002000000000000000000000000000E50D0008D6
:10003000F10D000800000000FD0D0008090E000889
:10004000790E0008790E0008790E0008790E000874
:10005000790E0008790E0008790E0008790E000864
:10006000790E0008790E0008790E0008790E000854
:10007000790E0008790E0008790E0008790E000844
:10008000790E0008790E0008790E0008790E000834
:10009000790E0008790E0008790E0008790E000824
:1000A000790E0008790E0008790E0008790E000814
:1000B000790E0008790E000800000000790E000893
:1000C000790E00080000000000000000790E000812
:1000D00000000000790E0008790E00080000000002
:1000E000150E0008790E0008790E000800000000C7
:1000F0000000000000000000000000000000000000
:0C01000000000000000000005FF808F1A3
:10010C0010B5054C237833B9044B13B10448AFF345
:10011C0000800123237010BD0C00002000000000A3
:10012C001835000808B5034B1BB103490348AFF35E
:10013C00008008BD000000001000002018350008E9
:10014C0080B500AF00224FF400710A4801F0CCFDDD
:10015C0001224FF40071074801F0C6FD00224FF454
:10016C000071044801F0C0FD012000F0E3FE00BF67
:10017C0080BD00BF000C014080B582B000AF0346CB
:10018C00FB71FB7903F00103DBB21A464FF480716B
:10019C00144801F0A9FDFB795B10DBB203F00103FD
:1001AC00DBB21A4680210F4801F09EFDFB799B10B3
:1001BC00DBB203F00103DBB21A464021094801F01F
:1001CC0093FDFB79DB10DBB203F00103DBB21A46C3
:1001DC002021044801F088FDFFF7B2FF00BF08376B
:1001EC00BD4680BD000C014080B582B000AF034617
:1001FC00FB7100224FF48061084801F075FDFB791A
:10020C001B09DBB21846FFF7B7FFFB791846FFF75F
:10021C00B3FF00BF0837BD4680BD00BF000C0140D6
:10022C0080B582B000AF0346FB7101224FF48061B0
:10023C00084801F059FDFB791B09DBB21846FFF7A2
:10024C009BFFFB791846FFF797FF00BF0837BD46A9
:10025C0080BD00BF000C014080B500AF0120FFF74E
:10026C00C3FF052000F066FE00BF80BD80B582B0E4
:10027C0000AF786007E07B681B781846FFF7D0FF6B
:10028C007B6801337B607B681B78002BF3D100BF4C
:10029C0000BF0837BD4680BD80B500AF00224FF4CB
:1002AC000071274801F020FD00224FF480612448A2
:1002BC0001F01AFD322000F03DFE224B08221A708C
:1002CC000320FFF759FF052000F034FE0320FFF751
:1002DC0053FF052000F02EFE0320FFF74DFF0220F8
:1002EC0000F028FE0220FFF747FF022000F022FE5C
:1002FC00144B1B7843F02003DBB21846FFF774FF56
:10030C00104B04221A700F4B1B7843F00803DBB21E
:10031C001846FFF769FF022000F00CFEFFF79CFF68
:10032C00084B02221A70074B1B7843F00403DBB214
:10033C001846FFF759FF022000F0FCFD00BF80BDFE
:10034C00000C01402800002080B584B000AF0346AB
:10035C000A46FB711346BB710023FB73BB79012B5F
:10036C0002D14023FB7301E00023FB73FA7BFB7982
:10037C001344DBB25BB263F07F035BB2DBB21846B3
:10038C00FFF732FF00BF1037BD4680BD80B489B087
:10039C0000AF786039607B68002B06D13B68302257
:1003AC001A703B68013300221A700023FB6119E0BC
:1003BC0079681E4BA3FB0123DA0813469B001344F8
:1003CC005B00CA1AD2B2FB69591CF9613032D2B245
:1003DC0020333B4403F8142C7B68144AA2FB032300
:1003EC00DB087B607B68002BE2D10023BB610EE055
:1003FC00FB695A1EBB69D21ABB6939680B4420329F
:10040C003A4412F8142C1A70BB690133BB61BA69F7
:10041C00FB699A42ECDBBB693A68134400221A7000
:10042C003B6818462437BD4680BC7047CDCCCCCC3D
:10043C0080B582B000AF1C4800F078FE4FF47A71A2
:10044C00194800F021FF0346002B0BD1164801F090
:10045C0021F838603B6840F6E44202FB03F31B0BC7
:10046C007B6006E04FF47A730B221049104802F0BF
:10047C004DFE4FF47A7312220E490D4802F046FEDF
:10048C004FF4FA6000F056FD0B4B1B78DBB2002BDF
:10049C000CBF01230023DBB21A46074B1A707B6892
:1004AC0018460837BD4680BD2C00002030350008AA
:1004BC00A40000203C350008FC00002080B582B070
:1004CC0000AF78604FF47A7313220D490D4802F097
:1004DC001DFE4FF4FA6000F02DFD786800F016F860
:1004EC00094B1B78DBB2002B0CBF01230023DBB2C2
:1004FC001A46054B1A7000BF0837BD4680BD00BFB9
:10050C0050350008A4000020FC000020B0B5C4B099
:10051C0000AF07F58873A3F58673186007F5887329
:10052C00A3F586731B6840F2F452934208D807F582
:10053C008873A3F586731B6840F2653293425DD8CD
:10054C00FFF78AFE5D4B07F184041D460FCD0FC4E7
:10055C002B6823705A4B1B680133594A13600021D6
:10056C000020FFF7F1FE07F184031846FFF77EFE2B
:10057C0001210020FFF7E8FE514B1B681A4607F1DA
:10058C00CC0319461046FFF701FFC7F8040107F129
:10059C0008034C4A92E8030018600433198007F1F1
:1005AC0008031846FFF762FED7F80401FFF75EFE5A
:1005BC0001210820FFF7C8FE434B1B681A4607F1C0
:1005CC00980319461046FFF7E1FEC7F8000107F142
:1005DC003C033E4A92E8030018600433198007F18B
:1005EC003C031846FFF742FED7F80001FFF73EFE2A
:1005FC00374B1B684FF4FA625A6359E0FFF72CFE35
:10060C00344B07F170041D460FCD0FC42B682370BB
:10061C0007F170031846FFF729FE2B4B1B680133BB
:10062C00294A136001210820FFF78EFE264B1B6818
:10063C001A4607F1980319461046FFF7A7FEC7F8AC
:10064C000C0107F10803214A92E8030018600433F7
:10065C00198007F108031846FFF708FED7F80C01BC
:10066C00FFF704FE01210020FFF76EFE144B1B6800
:10067C001A4607F1CC0319461046FFF787FEC7F858
:10068C00080107F13C030F4A92E803001860043399
:10069C00198007F13C031846FFF7E8FDD7F808016D
:1006AC00FFF7E4FD0A4B1B6840F2DC525A6300BFB3
:1006BC0000BF07F58877BD46B0BD00BF7835000890
:1006CC00EC00002068350008F000002070350008B0
:1006DC005C0000208C35000880B582B000AF00F0C3
:1006EC00C7FB00F093F800F0A3F900F0DFF800F07E
:1006FC0075F900F019F9124800F018FDFFF7CCFD60
:10070C000021104802F0ECF80F4B1B78DBB2002BE9
:10071C0007D10E4B1B78DBB2002B02D1FFF788FE02
:10072C007860094B1B78DBB2002BEDD1074B1B78A3
:10073C00DBB2002BE8D07868FFF7C0FEE4E700BF1F
:10074C002C0000205C000020F4000020FC000020A5
:10075C0080B584B000AF0346FB8000F0E1FBF8608D
:10076C00FB88B3F5805F1FD1234B1B78DBB2002BCA
:10077C001AD1224B1B68FA68D31AC82B14D91E4BFA
:10078C001B78DBB2002B0CBF01230023DBB21A4613
:10079C00194B1A70194AFB6813604FF47A731022C4
:1007AC001749184802F0B2FCFB88B3F5805F1FD1E3
:1007BC00114B1B78DBB2002B1AD0104B1B68FA685C
:1007CC00D31AC82B14D90C4B1B78DBB2002B0CBFE3
:1007DC0001230023DBB21A46074B1A70074AFB6849
:1007EC0013604FF47A7311220749064802F08EFC0D
:1007FC0000BF1037BD4680BDF4000020F80000207B
:10080C00A0350008A4000020B435000880B594B0D1
:10081C0000AF07F1280328220021184602F04AFEF7
:10082C0007F1140300221A605A609A60DA601A61A8
:10083C003B1D00221A605A609A60DA600223BB6288
:10084C000123BB631023FB6300237B6407F12803A4
:10085C00184601F079FA0346002B01D000F062F93A
:10086C000F237B610023BB610023FB6100233B62F0
:10087C0000237B6207F114030021184601F0E6FC0B
:10088C000346002B01D000F04DF902237B600023BE
:10089C00FB603B1D184601F067FE0346002B01D0A0
:1008AC0000F040F900BF5037BD4680BD80B584B024
:1008BC0000AF3B1D00221A605A609A60184B194A0F
:1008CC001A60174B00229A60154B00221A73144BB6
:1008DC0000221A75124B4FF46022DA61104B002281
:1008EC005A600F4B01221A610D4800F047FB03467A
:1008FC00002B01D000F016F900237B600123BB60B4
:10090C000023FB603B1D1946054800F0CFFD034654
:10091C00002B01D000F006F900BF1037BD4680BD9A
:10092C002C0000200024014080B58AB000AF07F1F4
:10093C00200300221A605A603B1D00221A605A6084
:10094C009A60DA601A615A619A61224B224A1A60E3
:10095C00204B07225A601F4B00229A601D4B44F615
:10096C001F62DA601B4B00221A611A4B00229A613B
:10097C00184801F065FF0346002B01D000F0D2F8B7
:10098C0000233B6200237B6207F1200319461148C8
:10099C0002F014FB0346002B01D000F0C3F86023D7
:1009AC007B600023BB600223FB6000237B613B1D4B
:1009BC0000221946074802F02FF80346002B01D0FD
:1009CC0000F0B0F8034800F053F900BF2837BD46DB
:1009DC0080BD00BF5C0000200004004080B500AF6B
:1009EC00114B124A1A60104B4FF4E1325A600E4B05
:1009FC0000229A600C4B0022DA600B4B00221A6129
:100A0C00094B0C225A61084B00229A61064B0022BA
:100A1C00DA61054802F02AFB0346002B01D000F0F6
:100A2C0081F800BF80BD00BFA40000200038014049
:100A3C0080B586B000AF07F1080300221A605A6037
:100A4C009A60DA60334B9B69324A43F0040393613A
:100A5C00304B9B6903F004037B607B682D4B9B69D7
:100A6C002C4A43F0080393612A4B9B6903F008035B
:100A7C003B603B6800224FF4FC61274801F034F9DD
:100A8C0000224FF40841254801F02EF94FF4FC6385
:100A9C00BB600123FB6000233B6102237B6107F1F8
:100AAC00080319461C4800F0A3FF4FF40843BB6031
:100ABC000123FB6000233B6102237B6107F10803E8
:100ACC001946164800F094FF4FF48053BB60144B4A
:100ADC00FB6000233B6107F1080319460F4800F047
:100AEC0087FF1023BB600023FB6000233B6107F1F1
:100AFC0008031946084800F07BFF0022002128203B
:100B0C0000F03FFF282000F058FF00BF1837BD460B
:100B1C0080BD00BF00100240000C014000080140E5
:100B2C000000111080B400AF72B600BF00BFFDE72B
:100B3C0080B485B000AF154B9B69144A43F0010398
:100B4C009361124B9B6903F00103BB60BB680F4BB5
:100B5C00DB690E4A43F08053D3610C4BDB6903F025
:100B6C0080537B607B680A4B5B68FB60FB6823F0FF
:100B7C00E063FB60FB6843F08063FB60044AFB6846
:100B8C00536000BF1437BD4680BC70470010024054
:100B9C000000014080B588B000AF786007F1100309
:100BAC0000221A605A609A60DA607B681B68144AEB
:100BBC00934221D1134B9B69124A43F40073936106
:100BCC00104B9B6903F40073FB60FB680D4B9B6936
:100BDC000C4A43F0040393610A4B9B6903F0040332
:100BEC00BB60BB6801233B6103237B6107F11003EE
:100BFC001946054800F0FCFE00BF2037BD4680BDFD
:100C0C0000240140001002400008014080B485B06F
:100C1C0000AF78607B681B68124A93420CD1124B70
:100C2C009B69114A43F4006393610F4B9B6903F476
:100C3C000063FB60FB6810E07B681B680B4A934207
:100C4C000BD1094BDB69084A43F00203D361064B15
:100C5C00DB6903F00203BB60BB6800BF1437BD4601
:100C6C0080BC7047002C0140001002400004004082
:100C7C0080B588B000AF786007F1100300221A60CD
:100C8C005A609A60DA607B681B681F4A934219D1DC
:100C9C001E4B9B691D4A43F0040393611B4B9B69DC
:100CAC0003F00403FB60FB684FF480733B61022389
:100CBC007B610223FB6107F110031946144800F015
:100CCC0097FE1CE07B681B68124A934217D10F4BAE
:100CDC009B690E4A43F0040393610C4B9B6903F030
:100CEC000403BB60BB6840233B6102237B6102238E
:100CFC00FB6107F110031946054800F079FE00BFAF
:100D0C002037BD4680BD00BF002C014000100240C2
:100D1C00000801400004004080B588B000AF786046
:100D2C0007F1100300221A605A609A60DA607B683F
:100D3C001B681C4A934231D11B4B9B691A4A43F4E2
:100D4C0080439361184B9B6903F48043FB60FB6801
:100D5C00154B9B69144A43F004039361124B9B6936
:100D6C0003F00403BB60BB684FF400733B610223C8
:100D7C007B610323FB6107F1100319460B4800F05C
:100D8C0037FE4FF480633B6100237B610023BB6122
:100D9C0007F110031946054800F02AFE00BF203762
:100DAC00BD4680BD003801400010024000080140E3
:100DBC0080B400AF00BFFDE780B400AF00BFFDE71B
:100DCC0080B400AF00BFFDE780B400AF00BFFDE70B
:100DDC0080B400AF00BFFDE780B400AF00BFBD46DC
:100DEC0080BC704780B400AF00BFBD4680BC70476C
:100DFC0080B400AF00BFBD4680BC704780B500AF6B
:100E0C0000F07CF800BF80BD80B500AF4FF480507F
:100E1C0000F082FF00BF80BD80B400AF00BFBD46B4
:100E2C0080BC7047FFF7F8FF0B480C490C4A0023B5
:100E3C0002E0D458C4500433C4188C42F9D3094A84
:100E4C00094C002301E013600432A242FBD302F0F0
:100E5C0039FBFFF741FC7047000000200C0000201C
:100E6C00103600080C00002004010020FEE70000F2
:100E7C0080B500AF084B1B68074A43F010031360A2
:100E8C00032000F073FD0F2000F008F8FFF750FE70
:100E9C000023184680BD00BF0020024080B582B000
:100EAC0000AF7860124B1A68124B1B7819464FF43E
:100EBC007A73B3FBF1F3B2FBF3F3184600F08BFD3E
:100ECC000346002B01D001230EE07B680F2B0AD8C0
:100EDC00002279684FF0FF3000F053FD064A7B6822
:100EEC001360002300E0012318460837BD4680BD7F
:100EFC0000000020080000200400002080B400AF97
:100F0C00054B1B781A46054B1B681344034A1360A8
:100F1C0000BFBD4680BC70470800002000010020C7
:100F2C0080B400AF024B1B681846BD4680BC7047AE
:100F3C000001002080B584B000AF7860FFF7F0FFAF
:100F4C00B8607B68FB60FB68B3F1FF3F05D00A4BD0
:100F5C001B781A46FB681344FB6000BFFFF7E0FFE9
:100F6C000246BB68D31AFA689A42F7D800BF00BF92
:100F7C001037BD4680BD00BF0800002080B586B08C
:100F8C0000AF78600023FB7500233B610023BB603E
:100F9C000023FB607B68002B01D10123BEE07B6842
:100FAC009B68002B7B689B6A002B09D17B68002215
:100FBC00DA627B68002283F824207868FFF7EAFD68
:100FCC00786800F0C5FB0346FB757B689B6A03F0F1
:100FDC001003002B40F09980FB7D002B40F0958096
:100FEC007B689B6A23F4885323F0020343F00202CC
:100FFC007B689A627B685A687B68DB691A437B68FA
:10100C001B7B5B001343BA681343BB607B689B6814
:10101C00B3F5807F03D07B689B68012B02D14FF422
:10102C00807300E000233A6913433B617B681B7DAE
:10103C00012B19D17B681B7B002B09D17B689B6929
:10104C00013B5A033B69134343F400633B610BE0E0
:10105C007B689B6A43F020027B689A627B68DB6A40
:10106C0043F001027B68DA627B681B685B6823F4DF
:10107C0069417B681B683A690A435A607B681B6844
:10108C009A68284B13407A681268B9680B439360CE
:10109C007B689B68B3F5807F03D07B689B68012BD2
:1010AC0004D17B681B69013B1B05FB607B681B68DB
:1010BC00DB6A23F470017B681B68FA680A43DA6206
:1010CC007B681B689A68184B1340BA689A420BD11C
:1010DC007B680022DA627B689B6A23F0030343F08F
:1010EC0001027B689A6218E07B689B6A23F012030A
:1010FC0043F010027B689A627B68DB6A43F0010262
:10110C007B68DA620123FB7507E07B689B6A43F01E
:10111C0010027B689A620123FB75FB7D1846183719
:10112C00BD4680BDFDF7E1FFFE0E1FFF80B584B00C
:10113C0000AF78600023FB737B6893F82430012B9D
:10114C0001D1022398E07B68012283F8242078687F
:10115C0000F0A4FA0346FB73FB7B002B40F0878066
:10116C007B689B6A23F4407323F0010343F4807281
:10117C007B689A627B681B68414A934205D1414B5C
:10118C005B6803F47023002B15D17B689B6A23F4F6
:10119C0080127B689A627B681B685B6803F48063CF
:1011AC00002B26D07B689B6A23F4405343F4805277
:1011BC007B689A621DE07B689B6A43F480127B68B3
:1011CC009A627B681B682F4A934204D07B681B6829
:1011DC002B4A93420DD12B4B5B6803F48063002B9D
:1011EC0007D07B689B6A23F4405343F480527B689E
:1011FC009A627B689B6A03F48053002B06D07B6851
:10120C00DB6A23F006027B68DA6202E07B6800226C
:10121C00DA627B68002283F824207B681B686FF0FD
:10122C0002021A607B681B689B6803F46023B3F5A9
:10123C00602F13D17B681B68114A934205D1114B67
:10124C005B6803F47023002B08D17B681B689A68D9
:10125C007B681B6842F4A0029A600CE07B681B68F8
:10126C009A687B681B6842F480129A6003E07B6882
:10127C00002283F82420FB7B18461037BD4680BD26
:10128C00002801400024014090B587B000AF786081
:10129C00396000237B610023FB6000233B61FFF777
:1012AC003FFE78617B681B689B6803F48073002B9E
:1012BC000BD07B689B6A43F020027B689A627B6848
:1012CC00002283F824200123D3E07B681B685B6831
:1012DC0003F48073002B31D17B681B68DB6A03F449
:1012EC007003002B2AD121E03B68B3F1FF3F1DD0E6
:1012FC003B68002B07D0FFF713FE02467B69D31A1D
:10130C003A689A4212D27B681B681B6803F002038E
:10131C00002B0BD17B689B6A43F004027B689A62BA
:10132C007B68002283F824200323A2E07B681B68DF
:10133C001B6803F00203002BD6D070E04F4B1C68E7
:10134C00022001F0C7F90346B4FBF3F27B681B687B
:10135C0019694B4B0B40002B18D17B681B68D96863
:10136C00484B0B40002B11D17B681B681969464B0D
:10137C000B40002B08D17B681B68D968434B0B4092
:10138C00002B01D1142320E029231EE07B681B686D
:10139C0019693D4B0B40002B06D17B681B68D96843
:1013AC003A4B0B40002B0DD07B681B681969384BEE
:1013BC000B40002B08D17B681B68D968344B0B4061
:1013CC00002B01D1542300E0FC2302FB03F33B610F
:1013DC0021E03B68B3F1FF3F1AD03B68002B07D0EC
:1013EC00FFF79EFD02467B69D31A3A689A420FD2E8
:1013FC00FB683A699A420BD97B689B6A43F00402FA
:10140C007B689A627B68002283F82420032330E0F7
:10141C00FB680133FB60FB683A699A42D9D87B6858
:10142C001B686FF012021A607B689B6A43F40072AF
:10143C007B689A627B681B689B6803F46023B3F536
:10144C00602F15D17B681B7B002B11D17B689B6AAD
:10145C0023F480727B689A627B689B6A03F48053E6
:10146C00002B05D17B689B6A43F001027B689A6272
:10147C00002318461C37BD4690BD00BF000000205D
:10148C00244992242449920092244912922449001E
:10149C004992240080B483B000AF78607B681B68ED
:1014AC00DB6C18460C37BD4680BC704780B485B0E9
:1014BC0000AF786039600023FB730023BB607B684E
:1014CC0093F82430012B01D10223DCE07B6801224C
:1014DC0083F824203B685B68062B1CD87B681B6850
:1014EC00596B3B685A6813469B001344053B1F22FB
:1014FC0002FA03F3DB4319403B6818683B685A68EF
:10150C0013469B001344053B00FA03F27B681B68EF
:10151C000A435A633CE03B685B680C2B1CD87B6825
:10152C001B68196B3B685A6813469B001344233B9A
:10153C001F2202FA03F3DB4319403B6818683B682F
:10154C005A6813469B001344233B00FA03F27B6852
:10155C001B680A431A631BE07B681B68D96A3B68EB
:10156C005A6813469B001344413B1F2202FA03F3B3
:10157C00DB4319403B6818683B685A6813469B006C
:10158C001344413B00FA03F27B681B680A43DA629E
:10159C003B681B68092B1CD97B681B68D9683B68A6
:1015AC001A6813465B0013441E3B072202FA03F32E
:1015BC00DB4319403B6898683B681A6813465B002C
:1015CC0013441E3B00FA03F27B681B680A43DA6083
:1015DC0019E07B681B6819693B681A6813465B0045
:1015EC001344072202FA03F3DB4319403B68986863
:1015FC003B681A6813465B00134400FA03F27B68DD
:10160C001B680A431A613B681B68102B03D03B68AC
:10161C001B68112B32D17B681B681D4A934225D164
:10162C007B681B689B6803F40003002B26D17B6846
:10163C001B689A687B681B6842F400029A603B68DE
:10164C001B68102B1AD1134B1B68134AA2FB0323E4
:10165C009A0C13469B0013445B00BB6002E0BB6812
:10166C00013BBB60BB68002BF9D107E07B689B6A30
:10167C0043F020027B689A620123FB737B68002293
:10168C0083F82420FB7B18461437BD4680BC70477A
:10169C00002401400000002083DE1B4380B584B091
:1016AC0000AF78600023FB600023BB607B681B6885
:1016BC009B6803F00103012B40D07B681B689A6880
:1016CC007B681B6842F001029A601F4B1B681F4A23
:1016DC00A2FB03239B0CBB6002E0BB68013BBB601D
:1016EC00BB68002BF9D1FFF71BFCF8601FE0FFF77C
:1016FC0017FC0246FB68D31A022B18D97B681B68AF
:10170C009B6803F00103012B11D07B689B6A43F0AB
:10171C0010027B689A627B68DB6A43F001027B688B
:10172C00DA627B68002283F82420012307E07B68BF
:10173C001B689B6803F00103012BD8D100231846CA
:10174C001037BD4680BD00BF0000002083DE1B4368
:10175C0080B584B000AF78600023FB607B681B68A9
:10176C009B6803F00103012B2ED17B681B689A68E0
:10177C007B681B6822F001029A60FFF7D1FBF860CE
:10178C001BE0FFF7CDFB0246FB68D31A022B14D9E2
:10179C007B681B689B6803F00103012B0DD17B68F0
:1017AC009B6A43F010027B689A627B68DB6A43F0A9
:1017BC0001027B68DA62012307E07B681B689B6887
:1017CC0003F00103012BDCD0002318461037BD4673
:1017DC0080BD000080B485B000AF78607B6803F0FA
:1017EC000703FB600C4BDB68BB60BA684FF6FF036A
:1017FC001340BB60FB681A02BB68134343F0BF6322
:10180C0043F40033BB60044ABB68D36000BF143799
:10181C00BD4680BC704700BF00ED00E080B400AF57
:10182C00044BDB681B0A03F007031846BD4680BC5B
:10183C00704700BF00ED00E080B483B000AF0346FA
:10184C00FB7197F90730002B0BDBFB7903F01F02C0
:10185C00064997F907305B09012000FA02F241F8BA
:10186C00232000BF0C37BD4680BC704700E100E070
:10187C0080B483B000AF03463960FB7197F9073031
:10188C00002B0ADB3B68DAB20C4997F907301201DE
:10189C00D2B20B4483F800230AE03B68DAB2084961
:1018AC00FB7903F00F03043B1201D2B20B441A76FE
:1018BC0000BF0C37BD4680BC704700BF00E100E0A4
:1018CC0000ED00E080B489B000AFF860B9607A60D8
:1018DC00FB6803F00703FB61FB69C3F10703042BEF
:1018EC0028BF0423BB61FB690433062B02D9FB69B7
:1018FC00033B00E000237B614FF0FF32BB6902FA2F
:10190C0003F3DA43BB681A407B699A404FF0FF310E
:10191C007B6901FA03F3D9437B680B4013431846E8
:10192C002437BD4680BC704780B582B000AF78606C
:10193C007B68013BB3F1807F01D301230FE00A4A9E
:10194C007B68013B53600F214FF0FF30FFF790FF96
:10195C00054B00229A60044B07221A60002318469C
:10196C000837BD4680BD00BF10E000E080B582B0F6
:10197C0000AF78607868FFF72DFF00BF0837BD46D1
:10198C0080BD80B586B000AF0346B9607A60FB734A
:10199C0000237B61FFF742FF78617A68B968786948
:1019AC00FFF790FF024697F90F3011461846FFF7E4
:1019BC005FFF00BF1837BD4680BD80B582B000AF59
:1019CC000346FB7197F907301846FFF735FF00BF48
:1019DC000837BD4680BD80B582B000AF78607868AE
:1019EC00FFF7A2FF034618460837BD4680BD00002E
:1019FC0080B48BB000AF7860396000237B62002329
:101A0C003B6261E101227B6A02FA03F3FB613B68F2
:101A1C001B68FA691340BB61BA69FB699A4240F0D2
:101A2C0050813B685B68974A93425ED0954A9342DB
:101A3C0075D8954A934258D0934A93426FD8934A9B
:101A4C00934252D0914A934269D8914A93424CD0D6
:101A5C008F4A934263D88F4A934246D08D4A934221
:101A6C005DD8122B2AD8122B59D801A252F823F088
:101A7C00F71A0008D11A0008E31A0008251B000801
:101A8C002B1B00082B1B00082B1B00082B1B000812
:101A9C002B1B00082B1B00082B1B00082B1B000802
:101AAC002B1B00082B1B00082B1B00082B1B0008F2
:101ABC002B1B0008D91A0008ED1A0008764A93422D
:101ACC0013D02CE03B68DB683B6229E03B68DB68A9
:101ADC0004333B6224E03B68DB6808333B621FE065
:101AEC003B68DB680C333B621AE03B689B68002B5D
:101AFC0002D104233B6213E03B689B68012B05D1A8
:101B0C0008233B627B68FA691A6109E008233B628F
:101B1C007B68FA695A6103E000233B6200E000BF76
:101B2C00BB69FF2B01D87B6801E07B6804337B61C8
:101B3C00BB69FF2B02D87B6A9B0002E07B6A083BE7
:101B4C009B003B617B691A680F213B6901FA03F327
:101B5C00DB431A40396A3B6901FA03F31A437B6988
:101B6C001A603B685B6803F08053002B00F0A9807F
:101B7C004A4B9B69494A43F001039361474B9B696C
:101B8C0003F00103BB60BB68454A7B6A9B080233C8
:101B9C0052F82330FB607B6A03F003039B000F2297
:101BAC0002FA03F3DB43FA681340FB607B683D4A9F
:101BBC0093420DD07B683C4A934207D07B683B4AEA
:101BCC00934201D1022304E0032302E0012300E04D
:101BDC0000237A6A02F0030292009340FA681343DE
:101BEC00FB602F497B6A9B080233FA6841F823207B
:101BFC003B685B6803F48013002B06D02C4B9A686F
:101C0C002B49BB6913438B6006E0294B9A68BB696F
:101C1C00DB43274913408B603B685B6803F400137C
:101C2C00002B06D0224BDA682149BB691343CB60E9
:101C3C0006E01F4BDA68BB69DB431D491340CB60E0
:101C4C003B685B6803F40033002B06D0184B5A68D2
:101C5C001749BB6913434B6006E0154B5A68BB69C7
:101C6C00DB43134913404B603B685B6803F48033E0
:101C7C00002B1FD00E4B1A680D49BB6913430B6028
:101C8C001FE000BF000032100000311000002210D5
:101C9C000000211000001210000011100010024072
:101CAC000000014000080140000C01400010014000
:101CBC00000401400B4B1A68BB69DB430949134014
:101CCC000B607B6A01337B623B681A687B6A22FA81
:101CDC0003F3002B7FF496AE00BF00BF2C37BD463C
:101CEC0080BC70470004014080B483B000AF7860C2
:101CFC000B467B8013467B707B78002B03D07A8855
:101D0C007B681A6103E07B881A047B681A6100BF48
:101D1C000C37BD4680BC704780B582B000AF03461F
:101D2C00FB80084B5A69FB881340002B06D0054AF0
:101D3C00FB885361FB881846FEF70AFD00BF083785
:101D4C00BD4680BD0004014080B586B000AF786010
:101D5C007B68002B01D1012372E27B681B6803F0C6
:101D6C000103002B00F08780924B5B6803F00C039F
:101D7C00042B0CD08F4B5B6803F00C03082B12D197
:101D8C008C4B5B6803F48033B3F5803F0BD1894BEC
:101D9C001B6803F40033002B6CD07B685B68002B52
:101DAC0068D101234CE27B685B68B3F5803F06D1B8
:101DBC00804B1B687F4A43F4803313602EE07B68B2
:101DCC005B68002B0CD17B4B1B687A4A23F4803365
:101DDC001360784B1B68774A23F4802313601DE053
:101DEC007B685B68B3F5A02F0CD1724B1B68714AF2
:101DFC0043F4802313606F4B1B686E4A43F48033AB
:101E0C0013600BE06B4B1B686A4A23F4803313603E
:101E1C00684B1B68674A23F4802313607B685B68FC
:101E2C00002B13D0FFF77CF8386108E0FFF778F847
:101E3C0002463B69D31A642B01D9032300E25D4BA4
:101E4C001B6803F40033002BF0D014E0FFF768F8A4
:101E5C00386108E0FFF764F802463B69D31A642B3B
:101E6C0001D90323ECE1534B1B6803F40033002B23
:101E7C00F0D100E000BF7B681B6803F00203002B6D
:101E8C0063D04C4B5B6803F00C03002B0BD0494B1D
:101E9C005B6803F00C03082B1CD1464B5B6803F406
:101EAC008033002B16D1434B1B6803F00203002B2D
:101EBC0005D07B681B69012B01D00123C0E13D4B90
:101ECC001B6823F0F8027B685B69DB00394913431C
:101EDC000B603AE07B681B69002B20D0364B01224B
:101EEC001A60FFF71DF8386108E0FFF719F8024691
:101EFC003B69D31A022B01D90323A1E12D4B1B689B
:101F0C0003F00203002BF0D02A4B1B6823F0F802DD
:101F1C007B685B69DB00274913430B6015E0264B9C
:101F2C0000221A60FEF7FCFF386108E0FEF7F8FFAC
:101F3C0002463B69D31A022B01D9032380E11D4BC6
:101F4C001B6803F00203002BF0D17B681B6803F0C5
:101F5C000803002B3AD07B689B69002B19D0174BD8
:101F6C0001221A60FEF7DCFF386108E0FEF7D8FFAB
:101F7C0002463B69D31A022B01D9032360E10D4BB6
:101F8C005B6A03F00203002BF0D0012000F0CEFAC4
:101F9C001CE00A4B00221A60FEF7C2FF38610FE00A
:101FAC00FEF7BEFF02463B69D31A022B08D9032366
:101FBC0046E100BF00100240000042428004424251
:101FCC00924B5B6A03F00203002BE9D17B681B6820
:101FDC0003F00403002B00F0A6800023FB758B4B51
:101FEC00DB6903F08053002B0DD1884BDB69874AEA
:101FFC0043F08053D361854BDB6903F08053BB60A6
:10200C00BB680123FB75824B1B6803F48073002BA8
:10201C0018D17F4B1B687E4A43F480731360FEF724
:10202C007FFF386108E0FEF77BFF02463B69D31A5D
:10203C00642B01D9032303E1754B1B6803F48073F4
:10204C00002BF0D07B68DB68012B06D16F4B1B6A31
:10205C006E4A43F0010313622DE07B68DB68002BB2
:10206C000CD16A4B1B6A694A23F001031362674B5C
:10207C001B6A664A23F0040313621CE07B68DB686E
:10208C00052B0CD1614B1B6A604A43F004031362AD
:10209C005E4B1B6A5D4A43F0010313620BE05B4B22
:1020AC001B6A5A4A23F001031362584B1B6A574AA6
:1020BC0023F0040313627B68DB68002B15D0FEF75A
:1020CC002FFF38610AE0FEF72BFF02463B69D31A5B
:1020DC0041F28832934201D90323B1E04B4B1B6A86
:1020EC0003F00203002BEED014E0FEF719FF386169
:1020FC000AE0FEF715FF02463B69D31A41F288321B
:10210C00934201D903239BE0404B1B6A03F002036B
:10211C00002BEED1FB7D012B05D13C4BDB693B4AFF
:10212C0023F08053D3617B68DB69002B00F0878040
:10213C00364B5B6803F00C03082B61D07B68DB69C2
:10214C00022B46D1334B00221A60FEF7E9FE3861B0
:10215C0008E0FEF7E5FE02463B69D31A022B01D9D3
:10216C0003236DE0294B1B6803F00073002BF0D1A7
:10217C007B681B6AB3F5803F08D1244B5B6823F462
:10218C0000327B689B68214913434B601F4B5B6893
:10219C0023F474127B68196A7B685B6A0B431B49D6
:1021AC0013434B601B4B01221A60FEF7B9FE3861DA
:1021BC0008E0FEF7B5FE02463B69D31A022B01D9A3
:1021CC0003233DE0114B1B6803F00073002BF0D090
:1021DC0035E0104B00221A60FEF7A2FE386108E0D1
:1021EC00FEF79EFE02463B69D31A022B01D903234C
:1021FC0026E0064B1B6803F00073002BF0D11EE0A9
:10220C007B68DB69012B07D1012319E00010024028
:10221C0000700040600042420B4B5B68FB60FB6847
:10222C0003F480327B681B6A9A4206D1FB6803F484
:10223C0070127B685B6A9A4201D0012300E0002394
:10224C0018461837BD4680BD0010024080B584B0DA
:10225C0000AF786039607B68002B01D10123D0E09E
:10226C006A4B1B6803F007033A689A4210D9674B14
:10227C001B6823F0070265493B6813430B60634BF3
:10228C001B6803F007033A689A4201D00123B8E0B7
:10229C007B681B6803F00203002B20D07B681B6853
:1022AC0003F00403002B05D0594B5B68584A43F4E8
:1022BC00E06353607B681B6803F00803002B05D0B8
:1022CC00534B5B68524A43F460535360504B5B680A
:1022DC0023F0F0027B689B684D4913434B607B688D
:1022EC001B6803F00103002B40D07B685B68012B5B
:1022FC0007D1474B1B6803F40033002B15D1012386
:10230C007FE07B685B68022B07D1414B1B6803F0B5
:10231C000073002B09D1012373E03D4B1B6803F0C4
:10232C000203002B01D101236BE0394B5B6823F0D6
:10233C0003027B685B68364913434B60FEF7F0FD84
:10234C00F8600AE0FEF7ECFD0246FB68D31A41F296
:10235C008832934201D9032353E02D4B5B6803F081
:10236C000C027B685B689B009A42EBD1274B1B6885
:10237C0003F007033A689A4210D2244B1B6823F0EF
:10238C00070222493B6813430B60204B1B6803F088
:10239C0007033A689A4201D0012332E07B681B683C
:1023AC0003F00403002B08D0194B5B6823F4E062A4
:1023BC007B68DB68164913434B607B681B6803F032
:1023CC000803002B09D0124B5B6823F460527B6826
:1023DC001B69DB000E4913434B6000F021F80246E9
:1023EC000B4B5B681B0903F00F030A49CB5C22FA09
:1023FC0003F3094A1360094B1B681846FEF74EFDA0
:10240C00002318461037BD4680BD00BF0020024097
:10241C0000100240C8350008000000200400002015
:10242C0080B487B000AF0023FB600023BB600023A7
:10243C007B6100237B6000233B611E4B5B68FB6070
:10244C00FB6803F00C03042B02D0082B03D027E00D
:10245C00194B3B6127E0FB689B0C03F00F03174AF9
:10246C00D35C7B60FB6803F48033002B10D0114BE2
:10247C005B685B0C03F00103114AD35CBB607B68A7
:10248C000D4A03FB02F2BB68B2FBF3F37B6104E081
:10249C007B680C4A02FB03F37B617B693B6102E0C6
:1024AC00054B3B6100BF3B6918461C37BD4680BCE1
:1024BC00704700BF0010024000127A00E03500089F
:1024CC00F035000800093D0080B400AF024B1B68DA
:1024DC001846BD4680BC70470000002080B500AF98
:1024EC00FFF7F2FF0246054B5B681B0A03F007037C
:1024FC000349CB5C22FA03F3184680BD001002405E
:10250C00D835000880B500AFFFF7DEFF0246054B5B
:10251C005B68DB0A03F007030349CB5C22FA03F385
:10252C00184680BD00100240D835000880B485B034
:10253C0000AF78600A4B1B680A4AA2FB03235B0AB4
:10254C007A6802FB03F3FB6000BFFB685A1EFA605B
:10255C00002BF9D100BF00BF1437BD4680BC7047BB
:10256C0000000020D34D621080B586B000AF7860BB
:10257C0000233B610023FB607B681B6803F00103B5
:10258C00002B7DD00023FB754F4BDB6903F0805390
:10259C00002B0DD14C4BDB694B4A43F08053D3617C
:1025AC00494BDB6903F08053BB60BB680123FB75AF
:1025BC00464B1B6803F48073002B18D1434B1B68EC
:1025CC00424A43F480731360FEF7AAFC386108E0BA
:1025DC00FEF7A6FC02463B69D31A642B01D90323F0
:1025EC006DE03A4B1B6803F48073002BF0D0364B34
:1025FC001B6A03F44073FB60FB68002B2ED07B68D6
:10260C005B6803F44073FA689A4227D02E4B1B6A1E
:10261C0023F44073FB602E4B01221A602C4B0022DA
:10262C001A60294AFB681362FB6803F00103002B54
:10263C0014D0FEF775FC38610AE0FEF771FC024617
:10264C003B69D31A41F28832934201D9032336E015
:10265C001D4B1B6A03F00203002BEED01A4B1B6AB6
:10266C0023F440727B685B68174913430B62FB7D54
:10267C00012B05D1144BDB69134A23F08053D36132
:10268C007B681B6803F00203002B08D00E4B5B68C1
:10269C0023F440427B689B680B4913434B607B6877
:1026AC001B6803F01003002B08D0074B5B6823F466
:1026BC0080027B68DB68044913434B600023184697
:1026CC001837BD4680BD00BF0010024000700040AE
:1026DC004004424280B588B000AF786000237B6133
:1026EC000023FB6100233B610023FB600023BB61E3
:1026FC007B68102B0AD07B68102B00F28A807B68D9
:10270C00012B45D07B68022B75D082E0464B5B6871
:10271C00FB60454B1B6803F08073002B7BD0FB6880
:10272C009B0C03F00F03414AD35C3B61FB6803F441
:10273C008033002B15D03C4B5B685B0C03F0010322
:10274C003B4AD35C7B61FB6803F48033002B0DD0D8
:10275C00384A7B69B2FBF3F23B6902FB03F3FB6182
:10276C0004E03B69344A02FB03F3FB612E4B5B68CC
:10277C0003F48003B3F5800F02D1FB69BB614AE01F
:10278C00FB695B002D4AA2FB03235B08BB6142E0A3
:10279C00254B1B6AFB60FB6803F44073B3F5807F29
:1027AC0008D1FB6803F00203002B03D04FF4004365
:1027BC00BB611FE0FB6803F44073B3F5007F09D1E4
:1027CC00194B5B6A03F00203002B03D049F640431C
:1027DC00BB610FE0FB6803F44073B3F5407F1CD181
:1027EC00114B1B6803F40033002B16D04FF224431B
:1027FC00BB6112E011E0FFF785FE02460A4B5B68F5
:10280C009B0B03F0030301335B00B2FBF3F3BB61DF
:10281C0004E000BF02E000BF00E000BFBB69184647
:10282C002037BD4680BD00BF00100240F4350008C3
:10283C000436000800127A0000093D00ABAAAAAACF
:10284C0080B582B000AF78607B68002B01D101238A
:10285C0041E07B6893F83D30DBB2002B06D17B68FE
:10286C00002283F83C207868FEF7D0F97B680222BE
:10287C0083F83D207B681A687B6804331946104640
:10288C0000F08CF97B68012283F846207B680122DA
:10289C0083F83E207B68012283F83F207B6801226D
:1028AC0083F840207B68012283F841207B68012259
:1028BC0083F842207B68012283F843207B68012245
:1028CC0083F844207B68012283F845207B68012231
:1028DC0083F83D20002318460837BD4680BD000014
:1028EC0080B584B000AF786039603B68002B09D1AB
:1028FC007B6893F83E30DBB2012B14BF012300231D
:10290C00DBB222E03B68042B09D17B6893F83F30A3
:10291C00DBB2012B14BF01230023DBB215E03B68B3
:10292C00082B09D17B6893F84030DBB2012B14BF24
:10293C0001230023DBB208E07B6893F84130DBB263
:10294C00012B14BF01230023DBB2002B01D0012388
:10295C0059E03B68002B04D17B68022283F83E20AF
:10296C0013E03B68042B04D17B68022283F83F20E0
:10297C000BE03B68082B04D17B68022283F84020D3
:10298C0003E07B68022283F841207B681B680122EC
:10299C003968184600F0EEFA7B681B681C4A9342B3
:1029AC0007D17B681B685A6C7B681B6842F4004239
:1029BC005A647B681B68164A934209D07B681B6873
:1029CC00B3F1804F04D07B681B68124A934211D13B
:1029DC007B681B689B6803F00703FB60FB68062B96
:1029EC0010D07B681B681A687B681B6842F0010278
:1029FC001A6007E07B681B681A687B681B6842F0EA
:102A0C0001021A60002318461037BD4680BD00BF76
:102A1C00002C01400004004080B586B000AFF86087
:102A2C00B9607A600023FB75FB6893F83C30012B8E
:102A3C0001D10223AEE0FB68012283F83C207B68C5
:102A4C000C2B00F29F8001A252F823F08D2A000873
:102A5C00912B0008912B0008912B0008CD2A00081F
:102A6C00912B0008912B0008912B00080F2B0008CC
:102A7C00912B0008912B0008912B00084F2B00087C
:102A8C00FB681B68B968184600F0ECF8FB681B681B
:102A9C009A69FB681B6842F008029A61FB681B6824
:102AAC009A69FB681B6822F004029A61FB681B6838
:102ABC009969BB681A69FB681B680A439A6164E0F0
:102ACC00FB681B68B968184600F032F9FB681B6894
:102ADC009A69FB681B6842F400629A61FB681B6888
:102AEC009A69FB681B6822F480629A61FB681B6818
:102AFC009969BB681B691A02FB681B680A439A61D7
:102B0C0043E0FB681B68B968184600F07BF9FB686A
:102B1C001B68DA69FB681B6842F00802DA61FB6823
:102B2C001B68DA69FB681B6822F00402DA61FB6837
:102B3C001B68D969BB681A69FB681B680A43DA61B0
:102B4C0023E0FB681B68B968184600F0C5F9FB6800
:102B5C001B68DA69FB681B6842F40062DA61FB6887
:102B6C001B68DA69FB681B6822F48062DA61FB6817
:102B7C001B68D969BB681B691A02FB681B680A438E
:102B8C00DA6102E00123FB7500BFFB68002283F8C9
:102B9C003C20FB7D18461837BD4680BD80B485B0FF
:102BAC0000AF786039607B681B68FB607B682B4AE0
:102BBC00934207D07B68B3F1804F03D07B68284ADF
:102BCC00934208D1FB6823F07003FB603B685B68A1
:102BDC00FA681343FB607B68204A934207D07B68FA
:102BEC00B3F1804F03D07B681D4A934208D1FB6838
:102BFC0023F44073FB603B68DB68FA681343FB60AB
:102C0C00FB6823F080023B685B691343FB607B68C5
:102C1C00FA681A603B689A687B68DA623B681A68E3
:102C2C007B689A627B680D4A934203D13B681A69B0
:102C3C007B681A637B6801225A617B681B6903F00D
:102C4C000103002B05D07B681B6923F001027B6814
:102C5C001A6100BF1437BD4680BC7047002C014080
:102C6C000004004080B487B000AF786039607B68A6
:102C7C001B6A7B617B681B6A23F001027B681A620A
:102C8C007B685B683B617B689B69FB60FB6823F03E
:102C9C007003FB60FB6823F00303FB603B681B685D
:102CAC00FA681343FB607B6923F002037B613B688A
:102CBC009B687A6913437B617B681C4A93420CD1F5
:102CCC007B6923F008037B613B68DB687A691343FB
:102CDC007B617B6923F004037B617B68134A93421D
:102CEC0011D13B6923F480733B613B6923F400737E
:102CFC003B613B685B693A6913433B613B689B6989
:102D0C003A6913433B617B683A695A607B68FA689D
:102D1C009A613B685A687B685A637B687A691A6265
:102D2C0000BF1C37BD4680BC704700BF002C014063
:102D3C0080B487B000AF786039607B681B6A7B61B8
:102D4C007B681B6A23F010027B681A627B685B68E5
:102D5C003B617B689B69FB60FB6823F4E043FB6091
:102D6C00FB6823F44073FB603B681B681B02FA682A
:102D7C001343FB607B6923F020037B613B689B68FA
:102D8C001B017A6913437B617B681D4A93420DD109
:102D9C007B6923F080037B613B68DB681B017A69EC
:102DAC0013437B617B6923F040037B617B68144A8E
:102DBC00934213D13B6923F480633B613B6923F459
:102DCC0000633B613B685B699B003A6913433B6161
:102DDC003B689B699B003A6913433B617B683A698A
:102DEC005A607B68FA689A613B685A687B689A6398
:102DFC007B687A691A6200BF1C37BD4680BC70477D
:102E0C00002C014080B487B000AF786039607B68DB
:102E1C001B6A7B617B681B6A23F480727B681A6275
:102E2C007B685B683B617B68DB69FB60FB6823F05C
:102E3C007003FB60FB6823F00303FB603B681B68BB
:102E4C00FA681343FB607B6923F400737B613B6876
:102E5C009B681B027A6913437B617B681D4A934212
:102E6C000DD17B6923F400637B613B68DB681B023B
:102E7C007A6913437B617B6923F480637B617B6894
:102E8C00144A934213D13B6923F480533B613B6951
:102E9C0023F400533B613B685B691B013A691343A4
:102EAC003B613B689B691B013A6913433B617B683F
:102EBC003A695A607B68FA68DA613B685A687B68E1
:102ECC00DA637B687A691A6200BF1C37BD4680BC26
:102EDC00704700BF002C014080B487B000AF786011
:102EEC0039607B681B6A3B617B681B6A23F48052E8
:102EFC007B681A627B685B687B617B68DB69FB6063
:102F0C00FB6823F4E043FB60FB6823F44073FB6035
:102F1C003B681B681B02FA681343FB603B6923F494
:102F2C0000533B613B689B681B033A6913433B614D
:102F3C007B680F4A934209D17B6923F480437B6100
:102F4C003B685B699B017A6913437B617B687A6997
:102F5C005A607B68FA68DA613B685A687B681A6465
:102F6C007B683A691A6200BF1C37BD4680BC70474B
:102F7C00002C014080B487B000AFF860B9607A6073
:102F8C00BB6803F01F03012202FA03F37B61FB68A9
:102F9C001A6A7B69DB431A40FB681A62FB681A6A7F
:102FAC00BB6803F01F03796801FA03F31A43FB684B
:102FBC001A6200BF1C37BD4680BC704780B485B018
:102FCC0000AF786039607B6893F83C30012B01D1FD
:102FDC00022341E07B68012283F83C207B680222BB
:102FEC0083F83D207B681B685B68FB607B681B6813
:102FFC009B68BB60FB6823F07003FB603B681B683D
:10300C00FA681343FB607B681B68FA685A607B683C
:10301C001B68144A934209D07B681B68B3F1804F3C
:10302C0004D07B681B68104A93420CD1BB6823F018
:10303C008003BB603B685B68BA681343BB607B680A
:10304C001B68BA689A607B68012283F83D207B6814
:10305C00002283F83C20002318461437BD4680BC60
:10306C00704700BF002C01400004004080B582B0C6
:10307C0000AF78607B68002B01D1012342E07B68B4
:10308C0093F84130DBB2002B06D17B68002283F829
:10309C0040207868FDF740FE7B68242283F84120AD
:1030AC007B681B68DA687B681B6822F40052DA6064
:1030BC00786800F071F97B681B681A697B681B687B
:1030CC0022F490421A617B681B685A697B681B6802
:1030DC0022F02A025A617B681B68DA687B681B68DD
:1030EC0042F40052DA607B6800225A647B6820222A
:1030FC0083F841207B68202283F842207B680022E1
:10310C005A63002318460837BD4680BD80B58AB087
:10311C0002AFF860B9603B601346FB8000237B6113
:10312C00FB6893F84130DBB2202B75D1BB68002BC8
:10313C0002D0FB88002B01D101236EE0FB6800223A
:10314C005A64FB68212283F84120FDF7E9FE78617F
:10315C00FB68FA889A84FB68FA88DA84FB689B68B7
:10316C00B3F5805F08D1FB681B69002B04D10023E9
:10317C00FB61BB68BB6103E0BB68FB610023BB6107
:10318C002EE03B6800937B6900228021F86800F0F8
:10319C0048F80346002B05D0FB68202283F8412019
:1031AC0003233AE0FB69002B0BD1BB691B881A4641
:1031BC00FB681B68C2F308025A60BB690233BB612F
:1031CC0007E0FB691A78FB681B685A60FB690133DE
:1031DC00FB61FB68DB8C9BB2013B9AB2FB68DA8427
:1031EC00FB68DB8C9BB2002BCBD13B6800937B69DB
:1031FC0000224021F86800F014F80346002B05D09B
:10320C00FB68202283F84120032306E0FB68202280
:10321C0083F84120002300E0022318462037BD46E6
:10322C0080BD80B586B000AFF860B9603B601346D6
:10323C00FB713BE03B6AB3F1FF3F37D0FDF770FE0B
:10324C0002463B68D31A3A6A9A4202D33B6A002B75
:10325C0001D103233AE0FB681B68DB6803F004032D
:10326C00002B23D0BB68802B20D0BB68402B1DD0FB
:10327C00FB681B681B6803F00803082B16D100239E
:10328C007B61FB681B681B687B61FB681B685B6868
:10329C007B617B69F86800F01DF8FB6808225A64B2
:1032AC00FB68002283F8402001230FE0FB681B68B9
:1032BC001A68BB681340BA689A420CBF01230023FA
:1032CC00DBB21A46FB799A42B4D000231846183761
:1032DC00BD4680BD80B495B000AF78607B681B683C
:1032EC000C337B637B6B53E8003F3B633B6B23F4FA
:1032FC009073FB647B681B680C33FA6C3A64FB6359
:10330C00F96B3A6C41E80023BB63BB6B002BE5D136
:10331C007B681B6814333B623B6A53E8003FFB61DC
:10332C00FB6923F00103BB647B681B681433BA6C24
:10333C00FA62BB62B96AFA6A41E800237B627B6A73
:10334C00002BE5D17B681B6B012B19D17B681B68AB
:10335C000C33FB60FB6853E8003FBB60BB6823F099
:10336C0010037B647B681B680C337A6CBA617B61DD
:10337C007969BA6941E800233B613B69002BE5D1CF
:10338C007B68202283F842207B6800221A6300BFEE
:10339C005437BD4680BC704780B584B000AF7860B0
:1033AC007B681B681B6923F440517B68DA687B6877
:1033BC001B680A431A617B689A687B681B691A430D
:1033CC007B685B691343BB607B681B68DB6823F419
:1033DC00B05323F00C037A681268B9680B43D360BE
:1033EC007B681B685B6923F440717B689A697B6816
:1033FC001B680A435A617B681B682C4A934203D1B1
:10340C00FFF780F8F86002E0FFF768F8F860FA68F8
:10341C0013469B0013449A001A447B685B689B001C
:10342C00B2FBF3F3224AA2FB03235B091901FA68EE
:10343C0013469B0013449A001A447B685B689B00FC
:10344C00B2FBF3F21A4BA3FB02035B09642000FBF3
:10345C0003F3D31A1B013233154AA2FB03235B0976
:10346C0003F0F0031944FA6813469B0013449A00C6
:10347C001A447B685B689B00B2FBF3F20C4BA3FB1A
:10348C0002035B09642000FB03F3D31A1B013233E4
:10349C00074AA2FB03235B0903F00F027B681B683E
:1034AC000A449A6000BF1037BD4680BD0038014009
:1034BC001F85EB5103460244934200D1704703F839
:1034CC00011BF9E770B500260C4D0D4C641BA410C4
:1034DC00A64209D100F01AF800260A4D0A4C641BCA
:1034EC00A410A64205D170BD55F8043B984701368F
:1034FC00EEE755F8043B98470136F2E7083600082A
:10350C0008360008083600080C360008F8B500BF6D
:10351C00F8BC08BC9E467047F8B500BFF8BC08BCA8
:04352C009E46704700
:10353000414443204572726F720D0A00424F545449
:103540004C452046494C4C494E472E2E2E0D0A0024
:10355000424F54544C4520434845434B494E472E17
:103560002E2E0D0A0000000052656A3A200000006D
:103570004163633A20000000426F74746C653A2026
:1035800052656A656374656400000000426F74747C
:103590006C653A20416363657074656400000000E7
:1035A00050726F636573732068616C7465640D0A93
:1035B0000000000050726F6365737320726573754D
:1035C0006D65640D0A0000000000000000000000AE
:1035D00001020304060708090000000001020304B9
:1035E00002030405060708090A0B0C0D0E0F101044
:1035F0000102000002030405060708090A0B0C0D6E
:083600000E0F10100102000082
:043608003101000884
:04360C000D010008A4
:0C36100000127A00100000000100000011
:0400000508000E31B0
:00000001FF
